{
  "_format": "hh-sol-artifact-1",
  "contractName": "EscrowFactory",
  "sourceName": "contracts/escrow/EscrowFactory.sol",
  "abi": [
    {
      "inputs": [
        {
          "internalType": "uint32",
          "name": "rescueDelay",
          "type": "uint32"
        }
      ],
      "stateMutability": "nonpayable",
      "type": "constructor"
    },
    {
      "inputs": [],
      "name": "FailedDeployment",
      "type": "error"
    },
    {
      "inputs": [
        {
          "internalType": "uint256",
          "name": "balance",
          "type": "uint256"
        },
        {
          "internalType": "uint256",
          "name": "needed",
          "type": "uint256"
        }
      ],
      "name": "InsufficientBalance",
      "type": "error"
    },
    {
      "inputs": [
        {
          "internalType": "address",
          "name": "owner",
          "type": "address"
        }
      ],
      "name": "OwnableInvalidOwner",
      "type": "error"
    },
    {
      "inputs": [
        {
          "internalType": "address",
          "name": "account",
          "type": "address"
        }
      ],
      "name": "OwnableUnauthorizedAccount",
      "type": "error"
    },
    {
      "anonymous": false,
      "inputs": [
        {
          "indexed": true,
          "internalType": "address",
          "name": "escrow",
          "type": "address"
        },
        {
          "indexed": true,
          "internalType": "bytes32",
          "name": "orderHash",
          "type": "bytes32"
        },
        {
          "indexed": false,
          "internalType": "address",
          "name": "maker",
          "type": "address"
        },
        {
          "indexed": false,
          "internalType": "address",
          "name": "taker",
          "type": "address"
        },
        {
          "indexed": false,
          "internalType": "address",
          "name": "token",
          "type": "address"
        },
        {
          "indexed": false,
          "internalType": "uint256",
          "name": "amount",
          "type": "uint256"
        },
        {
          "indexed": false,
          "internalType": "bytes32",
          "name": "secretHash",
          "type": "bytes32"
        },
        {
          "indexed": false,
          "internalType": "uint256",
          "name": "safetyDeposit",
          "type": "uint256"
        }
      ],
      "name": "EscrowDeployed",
      "type": "event"
    },
    {
      "anonymous": false,
      "inputs": [
        {
          "indexed": true,
          "internalType": "address",
          "name": "previousOwner",
          "type": "address"
        },
        {
          "indexed": true,
          "internalType": "address",
          "name": "newOwner",
          "type": "address"
        }
      ],
      "name": "OwnershipTransferred",
      "type": "event"
    },
    {
      "inputs": [
        {
          "components": [
            {
              "internalType": "bytes32",
              "name": "orderHash",
              "type": "bytes32"
            },
            {
              "internalType": "Address",
              "name": "maker",
              "type": "uint256"
            },
            {
              "internalType": "Address",
              "name": "taker",
              "type": "uint256"
            },
            {
              "internalType": "Address",
              "name": "token",
              "type": "uint256"
            },
            {
              "internalType": "uint256",
              "name": "amount",
              "type": "uint256"
            },
            {
              "internalType": "bytes32",
              "name": "secretHash",
              "type": "bytes32"
            },
            {
              "internalType": "uint256",
              "name": "safetyDeposit",
              "type": "uint256"
            },
            {
              "components": [
                {
                  "internalType": "uint256[8]",
                  "name": "values",
                  "type": "uint256[8]"
                }
              ],
              "internalType": "struct Timelocks",
              "name": "timelocks",
              "type": "tuple"
            }
          ],
          "internalType": "struct Immutables",
          "name": "immutables",
          "type": "tuple"
        }
      ],
      "name": "deploy",
      "outputs": [
        {
          "internalType": "address",
          "name": "escrow",
          "type": "address"
        }
      ],
      "stateMutability": "payable",
      "type": "function"
    },
    {
      "inputs": [
        {
          "internalType": "bytes32",
          "name": "orderHash",
          "type": "bytes32"
        }
      ],
      "name": "getEscrowAddress",
      "outputs": [
        {
          "internalType": "address",
          "name": "",
          "type": "address"
        }
      ],
      "stateMutability": "view",
      "type": "function"
    },
    {
      "inputs": [],
      "name": "implementation",
      "outputs": [
        {
          "internalType": "address",
          "name": "",
          "type": "address"
        }
      ],
      "stateMutability": "view",
      "type": "function"
    },
    {
      "inputs": [],
      "name": "owner",
      "outputs": [
        {
          "internalType": "address",
          "name": "",
          "type": "address"
        }
      ],
      "stateMutability": "view",
      "type": "function"
    },
    {
      "inputs": [],
      "name": "renounceOwnership",
      "outputs": [],
      "stateMutability": "nonpayable",
      "type": "function"
    },
    {
      "inputs": [
        {
          "internalType": "address",
          "name": "newOwner",
          "type": "address"
        }
      ],
      "name": "transferOwnership",
      "outputs": [],
      "stateMutability": "nonpayable",
      "type": "function"
    }
  ],
  "bytecode": "0x60a060405234801561001057600080fd5b5060405161158038038061158083398101604081905261002f91610105565b338061005557604051631e4fbdf760e01b81526000600482015260240160405180910390fd5b61005e816100a8565b508060405161006c906100f8565b63ffffffff9091168152602001604051809103906000f080158015610095573d6000803e3d6000fd5b506001600160a01b031660805250610132565b600080546001600160a01b038381166001600160a01b0319831681178455604051919092169283917f8be0079c531659141344cd1fd0a4f28419497f9722a3daafe3b4186f6b6457e09190a35050565b610c778061090983390190565b60006020828403121561011757600080fd5b815163ffffffff8116811461012b57600080fd5b9392505050565b6080516107b661015360003960008181606c01526101d901526107b66000f3fe6080604052600436106100555760003560e01c80635c60da1b1461005a578063715018a6146100aa5780638da5cb5b146100c1578063921fcdc2146100df578063cfb9b8bf146100f2578063f2fde38b14610128575b600080fd5b34801561006657600080fd5b5061008e7f000000000000000000000000000000000000000000000000000000000000000081565b6040516001600160a01b03909116815260200160405180910390f35b3480156100b657600080fd5b506100bf610148565b005b3480156100cd57600080fd5b506000546001600160a01b031661008e565b61008e6100ed366004610694565b61015c565b3480156100fe57600080fd5b5061008e61010d3660046106ad565b6000908152600160205260409020546001600160a01b031690565b34801561013457600080fd5b506100bf6101433660046106c6565b610530565b61015061056e565b61015a600061059b565b565b80356000908152600160205260408120546001600160a01b0316156101d45760405162461bcd60e51b8152602060048201526024808201527f457363726f77466163746f72793a20657363726f7720616c72656164792065786044820152636973747360e01b60648201526084015b60405180910390fd5b6101fd7f00000000000000000000000000000000000000000000000000000000000000006105eb565b8235600090815260016020908152604080832080546001600160a01b0319166001600160a01b03861617905551929350909161023b918591016106f6565b6040516020818303038152906040528051906020012090506000826001600160a01b03168260405160240161027291815260200190565b60408051601f198184030181529181526020820180516001600160e01b0316639498bd7160e01b179052516102a79190610751565b6000604051808303816000865af19150503d80600081146102e4576040519150601f19603f3d011682016040523d82523d6000602084013e6102e9565b606091505b505090508061034d5760405162461bcd60e51b815260206004820152602a60248201527f457363726f77466163746f72793a206661696c656420746f20696e697469616c604482015269697a6520657363726f7760b01b60648201526084016101cb565b60c08401351561047c578360c001353410156103be5760405162461bcd60e51b815260206004820152602a60248201527f457363726f77466163746f72793a20696e73756666696369656e7420736166656044820152691d1e4819195c1bdcda5d60b21b60648201526084016101cb565b6040516001600160a01b0384169060c086013590600081818185875af1925050503d806000811461040b576040519150601f19603f3d011682016040523d82523d6000602084013e610410565b606091505b5050809150508061047c5760405162461bcd60e51b815260206004820152603060248201527f457363726f77466163746f72793a206661696c656420746f207472616e73666560448201526f1c881cd859995d1e4819195c1bdcda5d60821b60648201526084016101cb565b83356001600160a01b0384167f9dee572d592569e5986e50a663aa41a0c5f939ffc955f90fc353a7a37540b99d6104bd60208801356001600160a01b031690565b6001600160a01b036040890135166001600160a01b0360608a013516604080516001600160a01b0394851681529284166020840152921691810191909152608080890135606083015260a0808a01359183019190915260c0808a0135918301919091520160405180910390a35050919050565b61053861056e565b6001600160a01b03811661056257604051631e4fbdf760e01b8152600060048201526024016101cb565b61056b8161059b565b50565b6000546001600160a01b0316331461015a5760405163118cdaa760e01b81523360048201526024016101cb565b600080546001600160a01b038381166001600160a01b0319831681178455604051919092169283917f8be0079c531659141344cd1fd0a4f28419497f9722a3daafe3b4186f6b6457e09190a35050565b60006105f88260006105fe565b92915050565b60008147101561062a5760405163cf47918160e01b8152476004820152602481018390526044016101cb565b763d602d80600a3d3981f3363d3d373d3d3d363d730000008360601b60e81c176000526e5af43d82803e903d91602b57fd5bf38360781b176020526037600983f090506001600160a01b0381166105f85760405163b06ebf3d60e01b815260040160405180910390fd5b60006101e082840312156106a757600080fd5b50919050565b6000602082840312156106bf57600080fd5b5035919050565b6000602082840312156106d857600080fd5b81356001600160a01b03811681146106ef57600080fd5b9392505050565b60006101e082019050823582526020830135602083015260408301356040830152606083013560608301526080830135608083015260a083013560a083015260c083013560c083015261010060e0840160e084013792915050565b6000825160005b818110156107725760208186018101518583015201610758565b50600092019182525091905056fea2646970667358221220fabbe503d482508b018dc2a245fe86585daeb1fd2e7c714a636446cd1180afeb64736f6c6343000817003360c060405234801561001057600080fd5b50604051610c77380380610c7783398101604081905261002f91610041565b63ffffffff166080524260a05261006e565b60006020828403121561005357600080fd5b815163ffffffff8116811461006757600080fd5b9392505050565b60805160a051610bdd61009a60003960006103d301526000818161018f01526103b10152610bdd6000f3fe60806040526004361061008a5760003560e01c8063e83aa3a811610059578063e83aa3a814610118578063ee73007a14610138578063ef1cabd114610158578063f143d8a014610178578063f5659c5e146101be57600080fd5b806307caacce146100965780639498bd71146100b8578063b91e1d46146100d8578063e23563b1146100f857600080fd5b3661009157005b600080fd5b3480156100a257600080fd5b506100b66100b136600461098f565b6101dc565b005b3480156100c457600080fd5b506100b66100d33660046109cd565b61027f565b3480156100e457600080fd5b506100b66100f33660046109e6565b6102d4565b34801561010457600080fd5b506100b6610113366004610a0a565b61030e565b34801561012457600080fd5b506100b6610133366004610a38565b6103a7565b34801561014457600080fd5b506100b66101533660046109e6565b6104d1565b34801561016457600080fd5b506100b6610173366004610a0a565b610539565b34801561018457600080fd5b5060405163ffffffff7f00000000000000000000000000000000000000000000000000000000000000001681526020015b60405180910390f35b3480156101ca57600080fd5b506000546040519081526020016101b5565b803360408201356001600160a01b0316146102125760405162461bcd60e51b815260040161020990610a6b565b60405180910390fd5b61022060e0830160016105b1565b80421161023f5760405162461bcd60e51b815260040161020990610aa2565b61024d60e0840160036105b1565b80421061026c5760405162461bcd60e51b815260040161020990610ad1565b6102778686866105e4565b505050505050565b600054156102cf5760405162461bcd60e51b815260206004820152601b60248201527f457363726f773a20616c726561647920696e697469616c697a656400000000006044820152606401610209565b600055565b6102e260e0820160046105b1565b8042116103015760405162461bcd60e51b815260040161020990610aa2565b61030a82610734565b5050565b803360408201356001600160a01b03161461033b5760405162461bcd60e51b815260040161020990610a6b565b61034960e0830160016105b1565b8042116103685760405162461bcd60e51b815260040161020990610aa2565b61037660e0840160036105b1565b8042106103955760405162461bcd60e51b815260040161020990610ad1565b6103a08533866105e4565b5050505050565b6103f763ffffffff7f0000000000000000000000000000000000000000000000000000000000000000167f0000000000000000000000000000000000000000000000000000000000000000610aff565b42116104515760405162461bcd60e51b815260206004820152602360248201527f42617365457363726f773a207265736375652064656c6179206e6f74207061736044820152621cd95960ea1b6064820152608401610209565b6001600160a01b03831661046e5761046981836107fa565b610482565b6104826001600160a01b03841682846108a3565b604080516001600160a01b0385811682526020820185905283168183015290517f16fdc9425c0d3fa4cb9f0bfc60771e70fb89e4589a3fb8abab308e823308efe69181900360600190a1505050565b803360408201356001600160a01b0316146104fe5760405162461bcd60e51b815260040161020990610a6b565b61050c60e0830160036105b1565b80421161052b5760405162461bcd60e51b815260040161020990610aa2565b61053483610734565b505050565b61054760e0820160026105b1565b8042116105665760405162461bcd60e51b815260040161020990610aa2565b61057460e0830160036105b1565b8042106105935760405162461bcd60e51b815260040161020990610ad1565b6105ab846001600160a01b03604086013516856105e4565b50505050565b6000828260078111156105c6576105c6610b20565b600881106105d6576105d6610b36565b602002013590505b92915050565b806105fa600054826108d390919063ffffffff16565b6106465760405162461bcd60e51b815260206004820152601e60248201527f42617365457363726f773a20696e76616c696420696d6d757461626c657300006044820152606401610209565b83828060a001358260405160200161066091815260200190565b60405160208183030381529060405280519060200120146106c35760405162461bcd60e51b815260206004820152601a60248201527f42617365457363726f773a20696e76616c6964207365637265740000000000006044820152606401610209565b6106eb8560808601356001600160a01b036060880135165b6001600160a01b031691906108a3565b6106f9338560c001356107fa565b6040518681527f0ce781a18c10c8289803c7c4cfd532d797113c4b41c9701ffad7d0a632ac555b9060200160405180910390a1505050505050565b8061074a600054826108d390919063ffffffff16565b6107965760405162461bcd60e51b815260206004820152601e60248201527f42617365457363726f773a20696e76616c696420696d6d757461626c657300006044820152606401610209565b6107bf6001600160a01b0360208401351660808401356001600160a01b036060860135166106db565b6107cd338360c001356107fa565b6040517f6e3be9294e58d10b9c8053cfd5e09871b67e442fe394d6b0870d336b9df984a990600090a15050565b801561030a576000826001600160a01b03168260405160006040518083038185875af1925050503d806000811461084d576040519150601f19603f3d011682016040523d82523d6000602084013e610852565b606091505b50509050806105345760405162461bcd60e51b815260206004820152601f60248201527f42617365457363726f773a20455448207472616e73666572206661696c6564006044820152606401610209565b6108b68363a9059cbb60e01b8484610906565b6105345760405163fb7f507960e01b815260040160405180910390fd5b600081836040516020016108e79190610b4c565b6040516020818303038152906040528051906020012014905092915050565b60006040518481528360048201528260248201526020600060448360008a5af19150508015610952573d801561094857600160005114601f3d11169150610950565b6000863b1191505b505b949350505050565b80356001600160a01b038116811461097157600080fd5b919050565b60006101e0828403121561098957600080fd5b50919050565b600080600061022084860312156109a557600080fd5b833592506109b56020850161095a565b91506109c48560408601610976565b90509250925092565b6000602082840312156109df57600080fd5b5035919050565b60006101e082840312156109f957600080fd5b610a038383610976565b9392505050565b6000806102008385031215610a1e57600080fd5b82359150610a2f8460208501610976565b90509250929050565b600080600060608486031215610a4d57600080fd5b610a568461095a565b9250602084013591506109c46040850161095a565b6020808252601f908201527f42617365457363726f773a2063616c6c6572206973206e6f742074616b657200604082015260600190565b60208082526015908201527442617365457363726f773a20746f6f206561726c7960581b604082015260600190565b60208082526014908201527342617365457363726f773a20746f6f206c61746560601b604082015260600190565b808201808211156105de57634e487b7160e01b600052601160045260246000fd5b634e487b7160e01b600052602160045260246000fd5b634e487b7160e01b600052603260045260246000fd5b60006101e082019050823582526020830135602083015260408301356040830152606083013560608301526080830135608083015260a083013560a083015260c083013560c083015261010060e0840160e08401379291505056fea26469706673582212207ab9d11464fef61279584279cd6c4c7312528146b847316628732722b84d5b6664736f6c63430008170033",
  "linkReferences": {},
  "deployedLinkReferences": {}
}