{
  "_format": "hh-sol-artifact-1",
  "contractName": "EthereumHTLC",
  "sourceName": "contracts/EthereumHTLC.sol",
  "abi": [
    {
      "inputs": [],
      "name": "ReentrancyGuardReentrantCall",
      "type": "error"
    },
    {
      "anonymous": false,
      "inputs": [
        {
          "indexed": true,
          "internalType": "bytes32",
          "name": "contractId",
          "type": "bytes32"
        },
        {
          "indexed": true,
          "internalType": "address",
          "name": "sender",
          "type": "address"
        },
        {
          "indexed": true,
          "internalType": "address",
          "name": "recipient",
          "type": "address"
        },
        {
          "indexed": false,
          "internalType": "address",
          "name": "token",
          "type": "address"
        },
        {
          "indexed": false,
          "internalType": "uint256",
          "name": "amount",
          "type": "uint256"
        },
        {
          "indexed": false,
          "internalType": "bytes32",
          "name": "hashlock",
          "type": "bytes32"
        },
        {
          "indexed": false,
          "internalType": "uint256",
          "name": "timelock",
          "type": "uint256"
        }
      ],
      "name": "HTLCCreated",
      "type": "event"
    },
    {
      "anonymous": false,
      "inputs": [
        {
          "indexed": true,
          "internalType": "bytes32",
          "name": "contractId",
          "type": "bytes32"
        }
      ],
      "name": "HTLCRefunded",
      "type": "event"
    },
    {
      "anonymous": false,
      "inputs": [
        {
          "indexed": true,
          "internalType": "bytes32",
          "name": "contractId",
          "type": "bytes32"
        },
        {
          "indexed": false,
          "internalType": "bytes32",
          "name": "preimage",
          "type": "bytes32"
        }
      ],
      "name": "HTLCWithdrawn",
      "type": "event"
    },
    {
      "inputs": [
        {
          "internalType": "bytes32",
          "name": "",
          "type": "bytes32"
        }
      ],
      "name": "contracts",
      "outputs": [
        {
          "internalType": "address",
          "name": "sender",
          "type": "address"
        },
        {
          "internalType": "address",
          "name": "recipient",
          "type": "address"
        },
        {
          "internalType": "address",
          "name": "token",
          "type": "address"
        },
        {
          "internalType": "uint256",
          "name": "amount",
          "type": "uint256"
        },
        {
          "internalType": "bytes32",
          "name": "hashlock",
          "type": "bytes32"
        },
        {
          "internalType": "uint256",
          "name": "timelock",
          "type": "uint256"
        },
        {
          "internalType": "bool",
          "name": "withdrawn",
          "type": "bool"
        },
        {
          "internalType": "bool",
          "name": "refunded",
          "type": "bool"
        }
      ],
      "stateMutability": "view",
      "type": "function"
    },
    {
      "inputs": [
        {
          "internalType": "address",
          "name": "recipient",
          "type": "address"
        },
        {
          "internalType": "address",
          "name": "token",
          "type": "address"
        },
        {
          "internalType": "uint256",
          "name": "amount",
          "type": "uint256"
        },
        {
          "internalType": "bytes32",
          "name": "hashlock",
          "type": "bytes32"
        },
        {
          "internalType": "uint256",
          "name": "timelock",
          "type": "uint256"
        }
      ],
      "name": "createHTLC",
      "outputs": [
        {
          "internalType": "bytes32",
          "name": "contractId",
          "type": "bytes32"
        }
      ],
      "stateMutability": "nonpayable",
      "type": "function"
    },
    {
      "inputs": [
        {
          "internalType": "bytes32",
          "name": "contractId",
          "type": "bytes32"
        }
      ],
      "name": "refund",
      "outputs": [],
      "stateMutability": "nonpayable",
      "type": "function"
    },
    {
      "inputs": [
        {
          "internalType": "bytes32",
          "name": "contractId",
          "type": "bytes32"
        },
        {
          "internalType": "bytes32",
          "name": "preimage",
          "type": "bytes32"
        }
      ],
      "name": "withdraw",
      "outputs": [],
      "stateMutability": "nonpayable",
      "type": "function"
    }
  ],
  "bytecode": "0x608060405234801561001057600080fd5b5060016000819055506115d1806100286000396000f3fe608060405234801561001057600080fd5b506004361061004c5760003560e01c806363615149146100515780637249fbb61461006d5780639077c89e14610089578063ec56a373146100b9575b600080fd5b61006b60048036038101906100669190610ce2565b6100f0565b005b61008760048036038101906100829190610d22565b610426565b005b6100a3600480360381019061009e9190610de3565b610775565b6040516100b09190610e6d565b60405180910390f35b6100d360048036038101906100ce9190610d22565b610b95565b6040516100e7989796959493929190610ec1565b60405180910390f35b6100f8610c57565b6000600160008481526020019081526020016000209050600073ffffffffffffffffffffffffffffffffffffffff168160000160009054906101000a900473ffffffffffffffffffffffffffffffffffffffff1673ffffffffffffffffffffffffffffffffffffffff16036101a2576040517f08c379a000000000000000000000000000000000000000000000000000000000815260040161019990610f9c565b60405180910390fd5b8060060160009054906101000a900460ff16156101f4576040517f08c379a00000000000000000000000000000000000000000000000000000000081526004016101eb90611008565b60405180910390fd5b8060060160019054906101000a900460ff1615610246576040517f08c379a000000000000000000000000000000000000000000000000000000000815260040161023d90611074565b60405180910390fd5b806005015442111561028d576040517f08c379a0000000000000000000000000000000000000000000000000000000008152600401610284906110e0565b60405180910390fd5b8060040154826040516020016102a39190611121565b60405160208183030381529060405280519060200120146102f9576040517f08c379a00000000000000000000000000000000000000000000000000000000081526004016102f090611188565b60405180910390fd5b60018160060160006101000a81548160ff0219169083151502179055508060020160009054906101000a900473ffffffffffffffffffffffffffffffffffffffff1673ffffffffffffffffffffffffffffffffffffffff1663a9059cbb8260010160009054906101000a900473ffffffffffffffffffffffffffffffffffffffff1683600301546040518363ffffffff1660e01b815260040161039d9291906111a8565b6020604051808303816000875af11580156103bc573d6000803e3d6000fd5b505050506040513d601f19601f820116820180604052508101906103e091906111fd565b50827f536849a82edba7bf7a8e82c7dafaca69a6e8b9ff1a493e72792f9d28bb987c7b836040516104119190610e6d565b60405180910390a250610422610c9d565b5050565b61042e610c57565b6000600160008381526020019081526020016000209050600073ffffffffffffffffffffffffffffffffffffffff168160000160009054906101000a900473ffffffffffffffffffffffffffffffffffffffff1673ffffffffffffffffffffffffffffffffffffffff16036104d8576040517f08c379a00000000000000000000000000000000000000000000000000000000081526004016104cf90610f9c565b60405180910390fd5b8060060160009054906101000a900460ff161561052a576040517f08c379a000000000000000000000000000000000000000000000000000000000815260040161052190611008565b60405180910390fd5b8060060160019054906101000a900460ff161561057c576040517f08c379a000000000000000000000000000000000000000000000000000000000815260040161057390611074565b60405180910390fd5b806005015442116105c2576040517f08c379a00000000000000000000000000000000000000000000000000000000081526004016105b990611276565b60405180910390fd5b8060000160009054906101000a900473ffffffffffffffffffffffffffffffffffffffff1673ffffffffffffffffffffffffffffffffffffffff163373ffffffffffffffffffffffffffffffffffffffff1614610654576040517f08c379a000000000000000000000000000000000000000000000000000000000815260040161064b906112e2565b60405180910390fd5b60018160060160016101000a81548160ff0219169083151502179055508060020160009054906101000a900473ffffffffffffffffffffffffffffffffffffffff1673ffffffffffffffffffffffffffffffffffffffff1663a9059cbb8260000160009054906101000a900473ffffffffffffffffffffffffffffffffffffffff1683600301546040518363ffffffff1660e01b81526004016106f89291906111a8565b6020604051808303816000875af1158015610717573d6000803e3d6000fd5b505050506040513d601f19601f8201168201806040525081019061073b91906111fd565b50817fcb7338a8e43edcc2e1891a284dade1a94cf794b65d41da7202bbaf88cc67051660405160405180910390a250610772610c9d565b50565b60004282116107b9576040517f08c379a00000000000000000000000000000000000000000000000000000000081526004016107b09061134e565b60405180910390fd5b600084116107fc576040517f08c379a00000000000000000000000000000000000000000000000000000000081526004016107f3906113ba565b60405180910390fd5b33868686868660405160200161081796959493929190611443565b604051602081830303815290604052805190602001209050600073ffffffffffffffffffffffffffffffffffffffff166001600083815260200190815260200160002060000160009054906101000a900473ffffffffffffffffffffffffffffffffffffffff1673ffffffffffffffffffffffffffffffffffffffff16146108d4576040517f08c379a00000000000000000000000000000000000000000000000000000000081526004016108cb906114ff565b60405180910390fd5b8473ffffffffffffffffffffffffffffffffffffffff166323b872dd3330876040518463ffffffff1660e01b81526004016109119392919061151f565b6020604051808303816000875af1158015610930573d6000803e3d6000fd5b505050506040513d601f19601f8201168201806040525081019061095491906111fd565b506040518061010001604052803373ffffffffffffffffffffffffffffffffffffffff1681526020018773ffffffffffffffffffffffffffffffffffffffff1681526020018673ffffffffffffffffffffffffffffffffffffffff168152602001858152602001848152602001838152602001600015158152602001600015158152506001600083815260200190815260200160002060008201518160000160006101000a81548173ffffffffffffffffffffffffffffffffffffffff021916908373ffffffffffffffffffffffffffffffffffffffff16021790555060208201518160010160006101000a81548173ffffffffffffffffffffffffffffffffffffffff021916908373ffffffffffffffffffffffffffffffffffffffff16021790555060408201518160020160006101000a81548173ffffffffffffffffffffffffffffffffffffffff021916908373ffffffffffffffffffffffffffffffffffffffff160217905550606082015181600301556080820151816004015560a0820151816005015560c08201518160060160006101000a81548160ff02191690831515021790555060e08201518160060160016101000a81548160ff0219169083151502179055509050508573ffffffffffffffffffffffffffffffffffffffff163373ffffffffffffffffffffffffffffffffffffffff16827fe73ebbb092b2f76c6207ed40ef30281ae71bf7d40a4baa4b4336be8292c71b8888888888604051610b849493929190611556565b60405180910390a495945050505050565b60016020528060005260406000206000915090508060000160009054906101000a900473ffffffffffffffffffffffffffffffffffffffff16908060010160009054906101000a900473ffffffffffffffffffffffffffffffffffffffff16908060020160009054906101000a900473ffffffffffffffffffffffffffffffffffffffff16908060030154908060040154908060050154908060060160009054906101000a900460ff16908060060160019054906101000a900460ff16905088565b600260005403610c93576040517f3ee5aeb500000000000000000000000000000000000000000000000000000000815260040160405180910390fd5b6002600081905550565b6001600081905550565b600080fd5b6000819050919050565b610cbf81610cac565b8114610cca57600080fd5b50565b600081359050610cdc81610cb6565b92915050565b60008060408385031215610cf957610cf8610ca7565b5b6000610d0785828601610ccd565b9250506020610d1885828601610ccd565b9150509250929050565b600060208284031215610d3857610d37610ca7565b5b6000610d4684828501610ccd565b91505092915050565b600073ffffffffffffffffffffffffffffffffffffffff82169050919050565b6000610d7a82610d4f565b9050919050565b610d8a81610d6f565b8114610d9557600080fd5b50565b600081359050610da781610d81565b92915050565b6000819050919050565b610dc081610dad565b8114610dcb57600080fd5b50565b600081359050610ddd81610db7565b92915050565b600080600080600060a08688031215610dff57610dfe610ca7565b5b6000610e0d88828901610d98565b9550506020610e1e88828901610d98565b9450506040610e2f88828901610dce565b9350506060610e4088828901610ccd565b9250506080610e5188828901610dce565b9150509295509295909350565b610e6781610cac565b82525050565b6000602082019050610e826000830184610e5e565b92915050565b610e9181610d6f565b82525050565b610ea081610dad565b82525050565b60008115159050919050565b610ebb81610ea6565b82525050565b600061010082019050610ed7600083018b610e88565b610ee4602083018a610e88565b610ef16040830189610e88565b610efe6060830188610e97565b610f0b6080830187610e5e565b610f1860a0830186610e97565b610f2560c0830185610eb2565b610f3260e0830184610eb2565b9998505050505050505050565b600082825260208201905092915050565b7f436f6e747261637420646f6573206e6f74206578697374000000000000000000600082015250565b6000610f86601783610f3f565b9150610f9182610f50565b602082019050919050565b60006020820190508181036000830152610fb581610f79565b9050919050565b7f416c72656164792077697468647261776e000000000000000000000000000000600082015250565b6000610ff2601183610f3f565b9150610ffd82610fbc565b602082019050919050565b6000602082019050818103600083015261102181610fe5565b9050919050565b7f416c726561647920726566756e64656400000000000000000000000000000000600082015250565b600061105e601083610f3f565b915061106982611028565b602082019050919050565b6000602082019050818103600083015261108d81611051565b9050919050565b7f54696d656c6f636b206578706972656400000000000000000000000000000000600082015250565b60006110ca601083610f3f565b91506110d582611094565b602082019050919050565b600060208201905081810360008301526110f9816110bd565b9050919050565b6000819050919050565b61111b61111682610cac565b611100565b82525050565b600061112d828461110a565b60208201915081905092915050565b7f496e76616c696420707265696d61676500000000000000000000000000000000600082015250565b6000611172601083610f3f565b915061117d8261113c565b602082019050919050565b600060208201905081810360008301526111a181611165565b9050919050565b60006040820190506111bd6000830185610e88565b6111ca6020830184610e97565b9392505050565b6111da81610ea6565b81146111e557600080fd5b50565b6000815190506111f7816111d1565b92915050565b60006020828403121561121357611212610ca7565b5b6000611221848285016111e8565b91505092915050565b7f54696d656c6f636b206e6f742065787069726564000000000000000000000000600082015250565b6000611260601483610f3f565b915061126b8261122a565b602082019050919050565b6000602082019050818103600083015261128f81611253565b9050919050565b7f4f6e6c792073656e6465722063616e20726566756e6400000000000000000000600082015250565b60006112cc601683610f3f565b91506112d782611296565b602082019050919050565b600060208201905081810360008301526112fb816112bf565b9050919050565b7f54696d656c6f636b206d75737420626520696e20746865206675747572650000600082015250565b6000611338601e83610f3f565b915061134382611302565b602082019050919050565b600060208201905081810360008301526113678161132b565b9050919050565b7f416d6f756e74206d7573742062652067726561746572207468616e2030000000600082015250565b60006113a4601d83610f3f565b91506113af8261136e565b602082019050919050565b600060208201905081810360008301526113d381611397565b9050919050565b60008160601b9050919050565b60006113f2826113da565b9050919050565b6000611404826113e7565b9050919050565b61141c61141782610d6f565b6113f9565b82525050565b6000819050919050565b61143d61143882610dad565b611422565b82525050565b600061144f828961140b565b60148201915061145f828861140b565b60148201915061146f828761140b565b60148201915061147f828661142c565b60208201915061148f828561110a565b60208201915061149f828461142c565b602082019150819050979650505050505050565b7f436f6e747261637420616c726561647920657869737473000000000000000000600082015250565b60006114e9601783610f3f565b91506114f4826114b3565b602082019050919050565b60006020820190508181036000830152611518816114dc565b9050919050565b60006060820190506115346000830186610e88565b6115416020830185610e88565b61154e6040830184610e97565b949350505050565b600060808201905061156b6000830187610e88565b6115786020830186610e97565b6115856040830185610e5e565b6115926060830184610e97565b9594505050505056fea26469706673582212206d882038d5fc6a94ec1b12572115a1d411c323dcf583757a0fa4636dc23bf2b164736f6c63430008170033",
  "linkReferences": {},
  "deployedLinkReferences": {}
}