{
  "_format": "hh-sol-artifact-1",
  "contractName": "FusionResolver",
  "sourceName": "contracts/FusionResolver.sol",
  "abi": [
    {
      "inputs": [
        {
          "internalType": "address",
          "name": "_limitOrderProtocol",
          "type": "address"
        }
      ],
      "stateMutability": "nonpayable",
      "type": "constructor"
    },
    {
      "inputs": [
        {
          "internalType": "address",
          "name": "owner",
          "type": "address"
        }
      ],
      "name": "OwnableInvalidOwner",
      "type": "error"
    },
    {
      "inputs": [
        {
          "internalType": "address",
          "name": "account",
          "type": "address"
        }
      ],
      "name": "OwnableUnauthorizedAccount",
      "type": "error"
    },
    {
      "inputs": [],
      "name": "SafeTransferFailed",
      "type": "error"
    },
    {
      "inputs": [],
      "name": "SafeTransferFromFailed",
      "type": "error"
    },
    {
      "anonymous": false,
      "inputs": [
        {
          "indexed": true,
          "internalType": "bytes32",
          "name": "id",
          "type": "bytes32"
        },
        {
          "indexed": true,
          "internalType": "address",
          "name": "sender",
          "type": "address"
        },
        {
          "indexed": true,
          "internalType": "address",
          "name": "recipient",
          "type": "address"
        },
        {
          "indexed": false,
          "internalType": "address",
          "name": "tokenAddress",
          "type": "address"
        },
        {
          "indexed": false,
          "internalType": "uint256",
          "name": "amount",
          "type": "uint256"
        },
        {
          "indexed": false,
          "internalType": "bytes32",
          "name": "hashlock",
          "type": "bytes32"
        },
        {
          "indexed": false,
          "internalType": "uint256",
          "name": "timelock",
          "type": "uint256"
        }
      ],
      "name": "HTLCCreated",
      "type": "event"
    },
    {
      "anonymous": false,
      "inputs": [
        {
          "indexed": true,
          "internalType": "bytes32",
          "name": "id",
          "type": "bytes32"
        }
      ],
      "name": "HTLCRefunded",
      "type": "event"
    },
    {
      "anonymous": false,
      "inputs": [
        {
          "indexed": true,
          "internalType": "bytes32",
          "name": "id",
          "type": "bytes32"
        },
        {
          "indexed": false,
          "internalType": "bytes32",
          "name": "preimage",
          "type": "bytes32"
        }
      ],
      "name": "HTLCWithdrawn",
      "type": "event"
    },
    {
      "anonymous": false,
      "inputs": [
        {
          "indexed": true,
          "internalType": "address",
          "name": "previousOwner",
          "type": "address"
        },
        {
          "indexed": true,
          "internalType": "address",
          "name": "newOwner",
          "type": "address"
        }
      ],
      "name": "OwnershipTransferred",
      "type": "event"
    },
    {
      "inputs": [
        {
          "internalType": "address",
          "name": "token",
          "type": "address"
        }
      ],
      "name": "approveToken",
      "outputs": [],
      "stateMutability": "nonpayable",
      "type": "function"
    },
    {
      "inputs": [
        {
          "internalType": "address",
          "name": "_recipient",
          "type": "address"
        },
        {
          "internalType": "address",
          "name": "_tokenAddress",
          "type": "address"
        },
        {
          "internalType": "uint256",
          "name": "_amount",
          "type": "uint256"
        },
        {
          "internalType": "bytes32",
          "name": "_hashlock",
          "type": "bytes32"
        },
        {
          "internalType": "uint256",
          "name": "_timelock",
          "type": "uint256"
        }
      ],
      "name": "createHTLC",
      "outputs": [
        {
          "internalType": "bytes32",
          "name": "id",
          "type": "bytes32"
        }
      ],
      "stateMutability": "nonpayable",
      "type": "function"
    },
    {
      "inputs": [
        {
          "internalType": "bytes32",
          "name": "",
          "type": "bytes32"
        }
      ],
      "name": "htlcLocks",
      "outputs": [
        {
          "internalType": "address",
          "name": "sender",
          "type": "address"
        },
        {
          "internalType": "address",
          "name": "recipient",
          "type": "address"
        },
        {
          "internalType": "address",
          "name": "tokenAddress",
          "type": "address"
        },
        {
          "internalType": "uint256",
          "name": "amount",
          "type": "uint256"
        },
        {
          "internalType": "bytes32",
          "name": "hashlock",
          "type": "bytes32"
        },
        {
          "internalType": "uint256",
          "name": "timelock",
          "type": "uint256"
        },
        {
          "internalType": "bool",
          "name": "withdrawn",
          "type": "bool"
        },
        {
          "internalType": "bool",
          "name": "refunded",
          "type": "bool"
        }
      ],
      "stateMutability": "view",
      "type": "function"
    },
    {
      "inputs": [],
      "name": "limitOrderProtocol",
      "outputs": [
        {
          "internalType": "address",
          "name": "",
          "type": "address"
        }
      ],
      "stateMutability": "view",
      "type": "function"
    },
    {
      "inputs": [],
      "name": "owner",
      "outputs": [
        {
          "internalType": "address",
          "name": "",
          "type": "address"
        }
      ],
      "stateMutability": "view",
      "type": "function"
    },
    {
      "inputs": [
        {
          "internalType": "bytes32",
          "name": "_id",
          "type": "bytes32"
        }
      ],
      "name": "refund",
      "outputs": [],
      "stateMutability": "nonpayable",
      "type": "function"
    },
    {
      "inputs": [],
      "name": "renounceOwnership",
      "outputs": [],
      "stateMutability": "nonpayable",
      "type": "function"
    },
    {
      "inputs": [
        {
          "internalType": "address",
          "name": "token",
          "type": "address"
        },
        {
          "internalType": "address",
          "name": "to",
          "type": "address"
        },
        {
          "internalType": "uint256",
          "name": "amount",
          "type": "uint256"
        }
      ],
      "name": "rescueTokens",
      "outputs": [],
      "stateMutability": "nonpayable",
      "type": "function"
    },
    {
      "inputs": [
        {
          "components": [
            {
              "internalType": "uint256",
              "name": "salt",
              "type": "uint256"
            },
            {
              "internalType": "Address",
              "name": "maker",
              "type": "uint256"
            },
            {
              "internalType": "Address",
              "name": "receiver",
              "type": "uint256"
            },
            {
              "internalType": "Address",
              "name": "makerAsset",
              "type": "uint256"
            },
            {
              "internalType": "Address",
              "name": "takerAsset",
              "type": "uint256"
            },
            {
              "internalType": "uint256",
              "name": "makingAmount",
              "type": "uint256"
            },
            {
              "internalType": "uint256",
              "name": "takingAmount",
              "type": "uint256"
            },
            {
              "internalType": "MakerTraits",
              "name": "makerTraits",
              "type": "uint256"
            }
          ],
          "internalType": "struct IOrderMixin.Order",
          "name": "order",
          "type": "tuple"
        },
        {
          "internalType": "bytes",
          "name": "signature",
          "type": "bytes"
        },
        {
          "internalType": "uint256",
          "name": "takingAmount",
          "type": "uint256"
        },
        {
          "internalType": "uint256",
          "name": "thresholdAmount",
          "type": "uint256"
        },
        {
          "internalType": "address",
          "name": "target",
          "type": "address"
        },
        {
          "internalType": "bytes",
          "name": "data",
          "type": "bytes"
        }
      ],
      "name": "settleOrders",
      "outputs": [],
      "stateMutability": "nonpayable",
      "type": "function"
    },
    {
      "inputs": [
        {
          "components": [
            {
              "internalType": "uint256",
              "name": "salt",
              "type": "uint256"
            },
            {
              "internalType": "Address",
              "name": "maker",
              "type": "uint256"
            },
            {
              "internalType": "Address",
              "name": "receiver",
              "type": "uint256"
            },
            {
              "internalType": "Address",
              "name": "makerAsset",
              "type": "uint256"
            },
            {
              "internalType": "Address",
              "name": "takerAsset",
              "type": "uint256"
            },
            {
              "internalType": "uint256",
              "name": "makingAmount",
              "type": "uint256"
            },
            {
              "internalType": "uint256",
              "name": "takingAmount",
              "type": "uint256"
            },
            {
              "internalType": "MakerTraits",
              "name": "makerTraits",
              "type": "uint256"
            }
          ],
          "internalType": "struct IOrderMixin.Order",
          "name": "order",
          "type": "tuple"
        },
        {
          "internalType": "bytes",
          "name": "extension",
          "type": "bytes"
        },
        {
          "internalType": "bytes32",
          "name": "orderHash",
          "type": "bytes32"
        },
        {
          "internalType": "address",
          "name": "taker",
          "type": "address"
        },
        {
          "internalType": "uint256",
          "name": "makingAmount",
          "type": "uint256"
        },
        {
          "internalType": "uint256",
          "name": "takingAmount",
          "type": "uint256"
        },
        {
          "internalType": "uint256",
          "name": "remainingMakingAmount",
          "type": "uint256"
        },
        {
          "internalType": "bytes",
          "name": "extraData",
          "type": "bytes"
        }
      ],
      "name": "takerInteraction",
      "outputs": [],
      "stateMutability": "nonpayable",
      "type": "function"
    },
    {
      "inputs": [
        {
          "internalType": "address",
          "name": "newOwner",
          "type": "address"
        }
      ],
      "name": "transferOwnership",
      "outputs": [],
      "stateMutability": "nonpayable",
      "type": "function"
    },
    {
      "inputs": [
        {
          "internalType": "bytes32",
          "name": "_id",
          "type": "bytes32"
        },
        {
          "internalType": "bytes32",
          "name": "_preimage",
          "type": "bytes32"
        }
      ],
      "name": "withdraw",
      "outputs": [],
      "stateMutability": "nonpayable",
      "type": "function"
    }
  ],
  "bytecode": "0x60a060405234801561001057600080fd5b506040516115d83803806115d883398101604081905261002f91610117565b338061005657604051631e4fbdf760e01b8152600060048201526024015b60405180910390fd5b61005f816100c7565b506001600160a01b0381166100b65760405162461bcd60e51b815260206004820152601360248201527f496e76616c6964204c4f50206164647265737300000000000000000000000000604482015260640161004d565b6001600160a01b0316608052610147565b600080546001600160a01b038381166001600160a01b0319831681178455604051919092169283917f8be0079c531659141344cd1fd0a4f28419497f9722a3daafe3b4186f6b6457e09190a35050565b60006020828403121561012957600080fd5b81516001600160a01b038116811461014057600080fd5b9392505050565b60805161145a61017e600039600081816101a80152818161074e015281816107f4015281816108bd0152610ccf015261145a6000f3fe608060405234801561001057600080fd5b50600436106100b45760003560e01c80638b47fd99116100715780638b47fd99146101f55780638da5cb5b146102085780639077c89e14610219578063adf38ba11461023a578063cea9d26f1461024d578063f2fde38b1461026057600080fd5b806363615149146100b9578063671eadfe146100ce578063715018a6146101885780637249fbb6146101905780637f94dd33146101a357806380b2edd8146101e2575b600080fd5b6100cc6100c7366004610f3f565b610273565b005b6101356100dc366004610f61565b600160208190526000918252604090912080549181015460028201546003830154600484015460058501546006909501546001600160a01b03968716969485169593909416939192909160ff8082169161010090041688565b604080516001600160a01b03998a168152978916602089015295909716948601949094526060850192909252608084015260a0830152151560c082015290151560e0820152610100015b60405180910390f35b6100cc61052c565b6100cc61019e366004610f61565b610540565b6101ca7f000000000000000000000000000000000000000000000000000000000000000081565b6040516001600160a01b03909116815260200161017f565b6100cc6101f0366004610f8f565b61072f565b6100cc610203366004611015565b6107cf565b6000546001600160a01b03166101ca565b61022c6102273660046110c7565b61094e565b60405190815260200161017f565b6100cc610248366004611118565b610cc4565b6100cc61025b3660046111e2565b610d5b565b6100cc61026e366004610f8f565b610d7c565b600082815260016020526040902080546001600160a01b03166102d35760405162461bcd60e51b815260206004820152601360248201527212151310c8191bd95cc81b9bdd08195e1a5cdd606a1b60448201526064015b60405180910390fd5b600681015460ff16156103215760405162461bcd60e51b8152602060048201526016602482015275242a26219030b63932b0b23c903bb4ba34323930bbb760511b60448201526064016102ca565b6006810154610100900460ff16156103735760405162461bcd60e51b815260206004820152601560248201527412151310c8185b1c9958591e481c99599d5b991959605a1b60448201526064016102ca565b80600501544211156103b65760405162461bcd60e51b815260206004820152600c60248201526b12151310c8195e1c1a5c995960a21b60448201526064016102ca565b60018101546001600160a01b031633146104025760405162461bcd60e51b815260206004820152600d60248201526c139bdd081c9958da5c1a595b9d609a1b60448201526064016102ca565b806004015460028360405160200161041c91815260200190565b60408051601f198184030181529082905261043691611247565b602060405180830381855afa158015610453573d6000803e3d6000fd5b5050506040513d601f19601f820116820180604052508101906104769190611263565b146104b65760405162461bcd60e51b815260206004820152601060248201526f496e76616c696420707265696d61676560801b60448201526064016102ca565b60068101805460ff19166001908117909155810154600382015460028301546104ed926001600160a01b0391821692911690610dba565b827f536849a82edba7bf7a8e82c7dafaca69a6e8b9ff1a493e72792f9d28bb987c7b8360405161051f91815260200190565b60405180910390a2505050565b610534610dea565b61053e6000610e17565b565b600081815260016020526040902080546001600160a01b031661059b5760405162461bcd60e51b815260206004820152601360248201527212151310c8191bd95cc81b9bdd08195e1a5cdd606a1b60448201526064016102ca565b600681015460ff16156105e95760405162461bcd60e51b8152602060048201526016602482015275242a26219030b63932b0b23c903bb4ba34323930bbb760511b60448201526064016102ca565b6006810154610100900460ff161561063b5760405162461bcd60e51b815260206004820152601560248201527412151310c8185b1c9958591e481c99599d5b991959605a1b60448201526064016102ca565b806005015442116106855760405162461bcd60e51b815260206004820152601460248201527312151310c81b9bdd081e595d08195e1c1a5c995960621b60448201526064016102ca565b80546001600160a01b031633146106cb5760405162461bcd60e51b815260206004820152600a6024820152692737ba1039b2b73232b960b11b60448201526064016102ca565b60068101805461ff001916610100179055805460038201546002830154610700926001600160a01b0391821692911690610dba565b60405182907fcb7338a8e43edcc2e1891a284dade1a94cf794b65d41da7202bbaf88cc67051690600090a25050565b610737610dea565b60405163095ea7b360e01b81526001600160a01b037f000000000000000000000000000000000000000000000000000000000000000081166004830152600019602483015282169063095ea7b3906044016020604051808303816000875af11580156107a7573d6000803e3d6000fd5b505050506040513d601f19601f820116820180604052508101906107cb919061127c565b5050565b6001600160a01b0360608901351660405163095ea7b360e01b81526001600160a01b037f00000000000000000000000000000000000000000000000000000000000000008116600483015260a08b01356024830152919091169063095ea7b3906044016020604051808303816000875af1158015610851573d6000803e3d6000fd5b505050506040513d601f19601f82011682018060405250810190610875919061127c565b50604051600160fb1b851790600090610896908690869086906020016112c7565b60408051601f1981840301815290829052630ad4eb0d60e31b825291506001600160a01b037f000000000000000000000000000000000000000000000000000000000000000016906356a75868906108fc908d908d908d908d9089908990600401611321565b6060604051808303816000875af115801561091b573d6000803e3d6000fd5b505050506040513d601f19601f8201168201806040525081019061093f91906113b4565b50505050505050505050505050565b60006001600160a01b03861661099a5760405162461bcd60e51b8152602060048201526011602482015270125b9d985b1a59081c9958da5c1a595b9d607a1b60448201526064016102ca565b6001600160a01b0385166109e85760405162461bcd60e51b8152602060048201526015602482015274496e76616c696420746f6b656e206164647265737360581b60448201526064016102ca565b60008411610a295760405162461bcd60e51b815260206004820152600e60248201526d125b9d985b1a5908185b5bdd5b9d60921b60448201526064016102ca565b6000839003610a6d5760405162461bcd60e51b815260206004820152601060248201526f496e76616c696420686173686c6f636b60801b60448201526064016102ca565b428211610abc5760405162461bcd60e51b815260206004820152601e60248201527f54696d656c6f636b206d75737420626520696e2074686520667574757265000060448201526064016102ca565b6040516bffffffffffffffffffffffff1933606090811b8216602084015288811b8216603484015287901b166048820152605c8101859052607c8101849052609c810183905260bc0160408051601f198184030181529181528151602092830120600081815260019093529120549091506001600160a01b031615610b795760405162461bcd60e51b815260206004820152601360248201527248544c4320616c72656164792065786973747360681b60448201526064016102ca565b604080516101008082018352338083526001600160a01b038a811660208086019182528b8316868801818152606088018d8152608089018d815260a08a018d8152600060c08c0181815260e08d018281528f83526001988990529d9091209b518c546001600160a01b0319908116918b16919091178d559751968c0180548916978a1697909717909655925160028b0180549097169716969096179094559251600388015592516004870155905160058601555160069094018054955161ffff1990961694151561ff0019169490941794151590920293909317909155610c61913087610e67565b604080516001600160a01b038781168252602082018790529181018590526060810184905290871690339083907fe73ebbb092b2f76c6207ed40ef30281ae71bf7d40a4baa4b4336be8292c71b889060800160405180910390a495945050505050565b336001600160a01b037f00000000000000000000000000000000000000000000000000000000000000001614610d305760405162461bcd60e51b815260206004820152601160248201527013db9b1e481313d40818d85b8818d85b1b607a1b60448201526064016102ca565b60008080610d40848601866113e2565b9194509250905061093f6001600160a01b0384168284610dba565b610d63610dea565b610d776001600160a01b0384168383610dba565b505050565b610d84610dea565b6001600160a01b038116610dae57604051631e4fbdf760e01b8152600060048201526024016102ca565b610db781610e17565b50565b610dcd8363a9059cbb60e01b8484610eeb565b610d775760405163fb7f507960e01b815260040160405180910390fd5b6000546001600160a01b0316331461053e5760405163118cdaa760e01b81523360048201526024016102ca565b600080546001600160a01b038381166001600160a01b0319831681178455604051919092169283917f8be0079c531659141344cd1fd0a4f28419497f9722a3daafe3b4186f6b6457e09190a35050565b60006323b872dd60e01b905060006040518281528560048201528460248201528360448201526020600060648360008b5af19150508015610ec5573d8015610ebb57600160005114601f3d11169150610ec3565b6000873b1191505b505b80610ee35760405163f405907160e01b815260040160405180910390fd5b505050505050565b60006040518481528360048201528260248201526020600060448360008a5af19150508015610f37573d8015610f2d57600160005114601f3d11169150610f35565b6000863b1191505b505b949350505050565b60008060408385031215610f5257600080fd5b50508035926020909101359150565b600060208284031215610f7357600080fd5b5035919050565b6001600160a01b0381168114610db757600080fd5b600060208284031215610fa157600080fd5b8135610fac81610f7a565b9392505050565b60006101008284031215610fc657600080fd5b50919050565b60008083601f840112610fde57600080fd5b50813567ffffffffffffffff811115610ff657600080fd5b60208301915083602082850101111561100e57600080fd5b9250929050565b6000806000806000806000806101a0898b03121561103257600080fd5b61103c8a8a610fb3565b975061010089013567ffffffffffffffff81111561105957600080fd5b6110658b828c01610fcc565b9098509650506101208901359450610140890135935061016089013561108a81610f7a565b925061018089013567ffffffffffffffff8111156110a757600080fd5b6110b38b828c01610fcc565b999c989b5096995094979396929594505050565b600080600080600060a086880312156110df57600080fd5b85356110ea81610f7a565b945060208601356110fa81610f7a565b94979496505050506040830135926060810135926080909101359150565b6000806000806000806000806000806101e08b8d03121561113857600080fd5b6111428c8c610fb3565b99506101008b013567ffffffffffffffff81111561115f57600080fd5b61116b8d828e01610fcc565b909a509850506101208b013596506101408b013561118881610f7a565b95506101608b013594506101808b013593506101a08b013592506101c08b013567ffffffffffffffff8111156111bd57600080fd5b6111c98d828e01610fcc565b915080935050809150509295989b9194979a5092959850565b6000806000606084860312156111f757600080fd5b833561120281610f7a565b9250602084013561121281610f7a565b929592945050506040919091013590565b60005b8381101561123e578181015183820152602001611226565b50506000910152565b60008251611259818460208701611223565b9190910192915050565b60006020828403121561127557600080fd5b5051919050565b60006020828403121561128e57600080fd5b81518015158114610fac57600080fd5b81835281816020850137506000828201602090810191909152601f909101601f19169091010190565b6001600160a01b03841681526040602082018190526000906112ec908301848661129e565b95945050505050565b6000815180845261130d816020860160208601611223565b601f01601f19169290920160200192915050565b863581526020808801359082015260408088013590820152606080880135908201526080808801359082015260a0808801359082015260c0808801359082015260e080880135908201526101806101008201819052600090611386908301878961129e565b85610120840152846101408401528281036101608401526113a781856112f5565b9998505050505050505050565b6000806000606084860312156113c957600080fd5b5050815160208301516040909301519094929350919050565b6000806000606084860312156113f757600080fd5b833561140281610f7a565b925060208401359150604084013561141981610f7a565b80915050925092509256fea26469706673582212201a7c597fbd8f13b92a950700b52b95c199be80306f6d3a350601e658b98352af64736f6c634300081c0033",
  "linkReferences": {},
  "deployedLinkReferences": {}
}